:020000040800F2
:10000000300700204D020008071800083D160008C0
:100010000518000843040008DB1A0008000000006F
:100020000000000000000000000000000B180008A5
:100030004504000800000000091800080D18000819
:1000400067020008670200086702000867020008EC
:1000500067020008670200086702000867020008DC
:1000600067020008670200086702000867020008CC
:1000700067020008670200086702000867020008BC
:1000800067020008670200086702000867020008AC
:10009000670200086702000867020008670200089C
:1000A000C11800086702000867020008670200081C
:1000B00067020008CD180008670200086702000800
:1000C000670200086702000867020008670200086C
:1000D000670200086702000867020008670200085C
:1000E000670200086702000867020008670200084C
:1000F000670200086702000867020008670200083C
:10010000670200086702000867020008670200082B
:10011000670200086702000867020008670200081B
:10012000670200086702000867020008670200080B
:1001300067020008670200086702000867020008FB
:1001400067020008670200086702000867020008EB
:1001500067020008670200086702000867020008DB
:1001600067020008670200086702000867020008CB
:10017000670200086702000867020008000000002C
:1001800067020008670200086702000867020008AB
:10019000670200086702000867020008670200089B
:1001A00000000000000000006702000800F002F8F4
:1001B00000F03CF80AA090E8000C82448344AAF1C5
:1001C0000107DA4501D100F031F8AFF2090EBAE8C3
:1001D0000F0013F0010F18BFFB1A43F0010318477B
:1001E0008C1C0000AC1C0000103A24BF78C878C1F9
:1001F000FAD8520724BF30C830C144BF04680C602D
:10020000704700000023002400250026103A28BF74
:1002100078C1FBD8520728BF30C148BF0B60704778
:100220001FB501F011FE1FBD10B510BD00F0CFF8D5
:100230001146FFF7F5FF01F067FC00F0EDF803B49D
:10024000FFF7F2FF03BC00F0F5F800000948804713
:1002500009480047FEE7FEE7FEE7FEE7FEE7FEE7A8
:10026000FEE7FEE7FEE7FEE704480549054A064BC0
:1002700070470000B1180008AD01000830010020EF
:1002800030070020300300203003002053EA020C26
:1002900000F069802DE9F04B4FF00006002B1FBFE6
:1002A000B3FA83F503FA05F424FA05F65E4012BFAB
:1002B0001643B2FA82F502FA05F4C5F120051EBF15
:1002C00022FA05FC44EA0C04203556EA044C4FEAB5
:1002D000144418BF641C4FF000084FF0000990420E
:1002E00071EB030C39D3002919BFB1FA81F701FA78
:1002F00007F6B0FA80F700FA07F6C7F120071EBF2D
:1003000020FA07FC46EA0C062037B6FBF4FCA7EB04
:100310000507103F07F01F0BCBF120060CFA0BFB73
:100320002CFA06F644BFB3460026202FA4BF5E4633
:100330004FF0000B5BEA060C08BF4FF0010B19EB06
:100340000B09ABFB027C48EB0608C01B06FB02CC8A
:100350000BFB03CC71EB0C01C1E70B460246414697
:100360004846BDE8F08B13B54FF000004FF0000198
:10037000AFF30080BDE81C4070474FF0000200B5AD
:10038000134694469646203922BFA0E80C50A0E8B8
:100390000C50B1F12001BFF4F7AF090728BFA0E866
:1003A0000C5048BF0CC05DF804EB890028BF40F832
:1003B000042B08BF704748BF20F8022B11F0804F74
:1003C00018BF00F8012B704770477047704775469B
:1003D00000F02CF8AE4605006946534620F00700B1
:1003E000854618B020B5FFF73FFFBDE820404FF02D
:1003F00000064FF000074FF000084FF0000B21F00F
:100400000701AC46ACE8C009ACE8C009ACE8C009DB
:10041000ACE8C0098D46704710B50446AFF30080C4
:100420002046BDE81040FFF70ABF000000487047B3
:10043000D000002001491820ABBEFEE726000200D4
:100440007047FEE7704772B6FEE7000070B50446DD
:1004500000F02EF90546601C02D0044800780444E0
:1004600000F026F9401BA042FAD370BD2000002006
:100470002DE9F84FDFF8F8A10022012403254FF001
:100480000F090AF1040BAAF1040E00BF0B6804FA6D
:1004900002F63340B34270D10F7907F00307012F02
:1004A00001D0022F16D187684FEA420805FA08FCEE
:1004B00027EA0C07D1F80CC00CFA08FC4CEA070C30
:1004C000C0F808C04768B7430E79C6F300169640D7
:1004D0003E4346600E79F643B6070AD0C7684FEA36
:1004E000420C05FA0CF6B7438E6806FA0CF63E434A
:1004F000C6600E7906F00306022E10D1D60800EB76
:100500008608D8F8206057074FEAD76C09FA0CF72D
:10051000BE430F6907FA0CF73743C8F82070066826
:100520004FEA420C05FA0CF7BE430F7907F00307B8
:1005300007FA0CF7374307604E6816F4403F1CD0AB
:100540004C4E376847F480473760366822F003071F
:1005500006F480460096484E07EB060CDCF8086867
:1005600097073F0F09FA07F826EA0806DFF80C811B
:10057000404503D14FF0000841E072E0DFF8008110
:10058000404502D14FF0010839E0DFF8F8804045DE
:1005900002D14FF0020832E0DFF8EC80404502D192
:1005A0004FF003082BE0DFF8E480404502D14FF024
:1005B000040824E0DFF8D880404502D14FF0050858
:1005C0001DE0DFF8D080404502D14FF0060816E06C
:1005D000DFF8C480404502D14FF007080FE0DFF894
:1005E000BC80404502D14FF0080808E0DFF8B08039
:1005F000404502D14FF0090801E04FF00A0808FA1F
:1006000007F848EA0608CCF80888DAF80060574688
:10061000D1F804C09E435FEACC2C00D51E433E6057
:10062000DBF800605F46D1F804C09E435FEA8C2C83
:1006300000D51E433E60DEF800607746D1F804C066
:100640009E435FEA8C3C00D51E433E60084F083F46
:100650003E68D1F804C09E435FEACC3C00D51E43FF
:100660003E60521C102AFFF411AFBDE8F88F000065
:10067000083C014044380240003001400000024084
:100680000004024000080240000C0240001002403A
:100690000014024000180240001C024000200240EA
:1006A000002402400AB1816170470904FBE70000A1
:1006B00001488068704700002000002002488168DF
:1006C0000278114481607047200000200B4810B56B
:1006D000016841F400710160016841F480610160CA
:1006E000016841F480710160032000F06FF80F2071
:1006F00000F006F800F024F8002010BD003C024095
:1007000070B50D4D04464FF47A712878B1FBF0F0C6
:100710000A490968B1FBF0F000F024FB48B9102C3D
:1007200007D200222146501E00F030F800206C60F5
:1007300070BD012070BD0000200000202C000020B2
:100740000A4808B5016841F480410160006800F47E
:10075000804000900548001F016841F08051016011
:10076000006800F08050009008BD0000443802404E
:10077000002809DB00F01F020121914040098000A0
:1007800000F1E020C0F8001170470000F0B40E4BFB
:100790001B680C46C3F30223C3F10705042D00D9DF
:1007A0000425191D072901D2002300E0DB1E0126C4
:1007B00006FA05F1491E214099409E40761E1640DA
:1007C0003143F0BC01F08AB90CED00E0064900F0BD
:1007D000070208684FF6FF03184040EA0220034A68
:1007E00010430860704700000CED00E00000FA05BF
:1007F0002DE9F8431748016841F080510160006815
:10080000154F00F08050012600903E64FFF750FF26
:1008100005464FF47A78114C05E000BFFFF748FF1A
:10082000401B40450DD86068C003F7D57E64FFF7D4
:100830003FFF0546464607E0FFF73AFF401BB04240
:1008400002D90320BDE8F88360688003F4D5002056
:10085000F8E700004038024000000E4200700040FF
:100860002DE9F0470E46050065D0DFF81481D8F871
:100870000000F7B200F00F00B04207D288F8007015
:10088000D8F8000000F00F00B04254D128683D4C69
:10089000810712D5400703D5206840F4E05020605E
:1008A0002878000703D5206840F460402060206865
:1008B000A96820F0F000084320602878C0072DD0F8
:1008C000304968680839012812D0022813D003285B
:1008D00011D00968890700292DDA216821F0030168
:1008E00001432160FFF7E4FE814641F2883A0EE0C1
:1008F00009688903EFE709688901ECE7FFF7D8FE8B
:10090000A0EB0901514502D90320BDE8F08720681A
:10091000696800F00C00B0EB810FEFD1D8F800103F
:10092000404601F00F01B14207D90770006800F09E
:100930000F00B04201D00120E7E72878400705D535
:100940002068E96820F4E050084320602878000718
:1009500006D52068296920F4604040EAC100206083
:1009600000F018F82168084AC1F30311515CC8402F
:100970000649086006480068FFF7C2FE0020C4E789
:10098000003C0240083802405C1E00082C00002099
:1009900024000020154810B5006810F00C0214481F
:1009A00013D01449042A0FD0082A0ED10F4C241F4B
:1009B0002268236802F03F025B0207D52068C0F37B
:1009C0008810A0FB010106E0084610BD2168C1F3B4
:1009D0008811A1FB00010023FFF758FC2168C1F337
:1009E0000141491C4900B0FBF1F010BD083802403C
:1009F0000024F40040787D012DE9F84F04006ED00A
:100A00002078DFF84C93C007A9F104054AD009F11A
:100A100004000168C1F38101012908D00068C0F316
:100A2000810002280AD1D9F80000400206D52868C2
:100A3000800337D560680028E1D033E06068B0F506
:100A4000803F10D0B0F5A02F286810D020F480305F
:100A50002860286820F4802028606068A8B1FFF72B
:100A600027FE06460DE0286840F48030F4E740F4A5
:100A700080202860F7E700BFFFF71AFE801B64287C
:100A800073D828688003F7D50CE0FFF711FE0646FF
:100A900005E000BFFFF70CFE801B6428F0D8286833
:100AA0008003F7D42078DFF8AC8280074FF0000A8B
:100AB0003ED5A748001D016811F00C0F08D0006852
:100AC000C0F3810002280BD1D9F80000400207D4FE
:100AD0002868800716D5E068012800D112E033E1CC
:100AE000E068B8B10120C8F80000FFF7E1FD064654
:100AF00005E000BFFFF7DCFD801B0228C0D8286896
:100B00008007F7D52868216920F0F80040EAC10085
:100B100028600DE0C8F800A0FFF7CAFD064604E013
:100B2000FFF7C6FD801B02281FD828688007F7D46E
:100B30002078000722D5864F87486169703771B1E8
:100B400001210160FFF7B4FD064604E0FFF7B0FDA8
:100B5000801B022809D838688007F7D50EE0C0F856
:100B600000A0FFF7A5FD064605E082E0FFF7A0FD27
:100B7000801B02287DD838688007F7D4207840078A
:100B800068D5DFF8CCB100270BF13C0BDBF8000097
:100B9000C0000BD4DBF8001041F08051CBF80010FE
:100BA000DBF80000012700F0805000906B4E3068A9
:100BB000C00510D4306840F480703060FFF778FDD5
:100BC000009005E0FFF774FD0099401A022850D804
:100BD0003068C005F6D55E4EA0686C3601280FD08F
:100BE0000528306810D020F001003060306820F017
:100BF00004003060A068B8B1FFF75AFD00900FE024
:100C0000306840F00100F4E740F004003060F7E79E
:100C1000FFF74EFD0099411A41F28830814266D8B3
:100C200030688007F4D50EE0FFF742FD009007E042
:100C3000FFF73EFD0099411A41F28830814256D8B3
:100C400030688007F4D42FB1DBF8001021F0805118
:100C5000CBF80010A069C8B33D49091D0968C1F36C
:100C6000810102294AD00228504607D0C8F8600006
:100C700000E03CE0FFF71CFD04463BE04746C8F8B7
:100C80006000FFF715FD064605E000BFFFF710FD09
:100C9000801B02282BD828688001F7D4D4E90701EB
:100CA0000843A16A2E4A490802EB0141626A41EAFF
:100CB0008211084394F82C1040EA0161C9F8001031
:100CC00001203866FFF7F4FC044606E03EE000BF72
:100CD000FFF7EEFC001B022809D828688001F7D531
:100CE00034E000BFFFF7E4FC001B022802D9032018
:100CF000BDE8F88F28688001F4D427E00128F7D0F8
:100D0000D9F80000E26900F4800191421CD1226A06
:100D100000F03F01914217D147F6C071626A01406D
:100D2000B1EB821F10D1A26A4FF0FF3300F44031C3
:100D300003EB5202B1EB024F06D194F82C1000F0F5
:100D40007060B0EB016F01D00120D1E70020CFE748
:100D50000438024000004742800E474200700040C5
:100D60000000FFFF10B5401EB0F1807F01D30120CD
:100D700010BD4FF0E02460610F21601700F0AEFE5F
:100D80000020A06107202061002010BD704770473F
:100D900070B590F83C20012A32D0012480F83C4004
:100DA000022280F83D2003685A689D6822F0700690
:100DB0000A6832435A60134B02689A4214D0B2F167
:100DC000804F11D0104B9A420ED0104B9A420BD04C
:100DD0000F4B9A4208D00F4B9A4205D00E4B9A42C5
:100DE00002D00E4B9A4204D1496825F08003194382
:100DF000916080F83D40002180F83C10084670BDAD
:100E0000022070BD000001400004004000080040C6
:100E1000000C004000040140004001400018004068
:100E200010B5040003D094F83D0010B107E0012094
:100E300010BD002084F83C00204600F01FF802207E
:100E400084F83D00211D206800F046FD012084F853
:100E5000460084F83E0084F83F0084F8400084F89F
:100E6000410084F8420084F8430084F8440084F888
:100E7000450084F83D00002010BD000010B586B08C
:100E8000044614216846FFF778FA2268294C0021AD
:100E900029480223A24222D1274A1032146844F082
:100EA00002041460126802F002020592026842F025
:100EB00002020260006800F002000590012000902C
:100EC000CDE90131CDE9031369461C48FFF7D0FA9B
:100ED000002211461D20FFF759FC1D2025E0184C6B
:100EE000A24224D1144A1432146844F480341460A9
:100EF000126802F480320592026842F01002026029
:100F0000006800F01000059040200090CDE901310C
:100F10000320CDE9031069460A48FFF7A9FA002229
:100F200011461820FFF732FC1820FFF721FC06B00D
:100F300010BD0000000400403038024000040240B0
:100F4000004001400010024090F83D10012901D0FE
:100F500001207047022180F83D100168CA6842F004
:100F60000102CA6000681149884214D0B0F1804F74
:100F700011D00F4988420ED00E4988420BD00E493D
:100F8000884208D00D49884205D00D49884202D0D8
:100F90000C49884204D1816801F00701062903D079
:100FA000016841F00101016000207047000001402C
:100FB0000004004000080040000C00400004014014
:100FC000004001400018004070B5044690F83C0015
:100FD0000025012817D0012684F83C60022084F8FF
:100FE0003D002068826822F0770222F47F4282600E
:100FF0000868502838D00DDC20284FD005DC90B38D
:10100000102811D14AE0022070BD302846D0402877
:101010000AD13BE060282FD070280DD0B0F5805F5A
:1010200003D0B0F5005F12D0012584F83D600020A8
:1010300084F83C00284670BDCB68D1E901212068C6
:1010400000F0BBFC2068816841F0770109E0CB68C3
:10105000D1E90121206800F0B0FC2068816841F4EA
:1010600080418160E1E719E0CA684968206800F0C2
:10107000B6FC5021206806E0CA684968206800F084
:10108000FFFC6021206800F0A2FCCEE7CA68496836
:10109000206800F0A4FC40212068F4E722680146A3
:1010A0001046F0E72DE9F0474A4E80462DED028BC1
:1010B0004FF00109016800279FED478BDFF820A161
:1010C0003068484DAAF11804814228D1E0684FF0F9
:1010D00004010028304654D000F09AFA6860216874
:1010E000002960D02A68801A01EB4102C2EBC111CD
:1010F00000EBC100C4E902073068016A21F0A001D9
:1011000001623068016A0162A06800F088FD53EC5A
:10111000182B00F09BFD00F051FDCAF80000324E84
:10112000D8F800003168884227D160694FF0080183
:10113000002830463AD000F06BFAE860616889B365
:10114000AA68801A01EB4102C2EBC11100EBC10099
:10115000C4E904073068016A21F420610162306843
:10116000016A0162206900F05AFD53EC182B00F06F
:101170006DFD00F023FDCAF80400BDEC028BBDE854
:10118000F08700F045FA28603068016A21F0A0017C
:1011900001623068016A41F020010162C4F80C90DC
:1011A0002760B1E713E02968401AA3E700F030FA9E
:1011B000A8603068016A21F4206101623068016A28
:1011C00041F400710162C4F814906760CAE7A9682D
:1011D000401ABDE7880000209CC420B07268913F8F
:1011E0001800002030000020400000202DE9F041D0
:1011F000054690F83C0000260C46012810D001203E
:1012000085F83C0072B1042A1CD0082A2CD00C2A84
:1012100050D00126002085F83C003046BDE8F08122
:101220000220FBE7D4E90012E368286800F0E8FB3D
:101230002868816921F00C01816128688169A268B0
:1012400011430FE0D4E90012E368286800F02AFC9B
:101250002868816921F44061816128688169A268F8
:1012600041EA02218161D5E72868D4E9002C277B77
:10127000016A21F480710162C169036A21F00301EE
:1012800041EA0C0121F0F00C39074FF420674CEAD9
:10129000116123F4206307EA02221A43C16102624A
:1012A0002868C16921F00C01C1612868C169A26880
:1012B000114328E02868D4E90027E168036A23F491
:1012C00080530362D0F81CC0036A2CF4407C4CEAC3
:1012D00007274FF6FF7C27F470470CEA01313943AA
:1012E0004FF4204723F4204307EA02321A43C16136
:1012F00002622868C16921F44061C1612868C1693E
:10130000A26841EA0221C16184E710B5040003D05C
:1013100094F83D0010B107E0012010BD002084F8D2
:101320003C00204600F01EF8022084F83D00211DFC
:10133000206800F0D1FA012084F8460084F83E00CD
:1013400084F83F0084F8400084F8410084F84200AB
:1013500084F8430084F8440084F8450084F83D0094
:10136000002010BD7047000030B50446002551B183
:1013700004290DD0082910D094F8410094F8452094
:10138000012811D10EE094F83E0094F84220F7E7CE
:1013900094F83F0094F84320F2E794F8400094F862
:1013A0004420EDE7012A01D0012030BD022059B1CF
:1013B000042912D0082919D084F8410084F8450086
:1013C0000C2944D0012540E084F83E0084F8420016
:1013D0002068C26842F0020210E084F83F0084F8FE
:1013E00043002068C26842F0040207E084F840002D
:1013F00084F844002068C26842F00802C2600122FA
:10140000206800F0CDFA14492068884214D0B0F169
:10141000804F11D0114988420ED0114988420BD01B
:101420001049884208D01049884205D00F498842A7
:1014300002D00F49884204D1816801F007010629D2
:1014400003D0016841F001010160284630BD2068E9
:10145000C26842F01002D1E70000014000040040E1
:1014600000080040000C0040000401400040014022
:101470000018004070B50446006801694FF000058F
:10148000C943890715D4C168C943890711D4E91E26
:10149000016101202077206880698007204602D002
:1014A000FFF700FE04E000F098F8204600F096F800
:1014B000257720680169C943490717D4C168C94322
:1014C000490713D46FF004010161022020772068DE
:1014D000806910F4407F204602D0FFF7E3FD04E06E
:1014E00000F07BF8204600F079F825772068016944
:1014F000C943090716D4C168C943090712D46FF05C
:1015000008010161042020772068C0698007204617
:1015100002D0FFF7C7FD04E000F05FF8204600F0BE
:101520005DF8257720680169C943C90617D4C168E9
:10153000C943C90613D46FF0100101610820207758
:101540002068C06910F4407F204602D0FFF7AAFD52
:1015500004E000F042F8204600F040F825772068CB
:101560000169C943C90708D1C168C943C90704D182
:10157000891E0161204600F033F820680169C943E3
:10158000090609D4C168C943090605D46FF0800172
:1015900001612046FFF7FAFB20680169C94349064B
:1015A00009D4C168C943490605D46FF040010161FF
:1015B000204600F042F820680169C94389060BD42F
:1015C000C168C943890607D46FF020010161204634
:1015D000BDE87040FFF7DBBB70BD7047704700008F
:1015E000084902680B6808499A4202D10A68521CED
:1015F0000A60064A00681268904202D14868401C9E
:101600004860704788000020000000204000002053
:101610000246002041B1042909D008290AD00C292A
:1016200001D11068006C70471068406B70471068FB
:10163000806B70471068C06B70477047FEE7000012
:10164000F0B587B014216846FEF797FE25480024C0
:10165000016841F001010160016801F0010105919B
:10166000016841F010010160016801F0100105916D
:10167000016841F080010160016801F0800105917D
:10168000016841F004010160016801F00401059165
:10169000016841F0020101600068134E00F0020091
:1016A0004FF402650590002229463046FEF7FAFF06
:1016B0000E4F002204213846FEF7F4FF0095012565
:1016C000CDE90154694630460394FEF7D1FE04206B
:1016D0000090CDE90154694638460394FEF7C8FEF0
:1016E00007B0F0BD30380240001002400008024050
:1016F00010B58AB0002422480494059406940794F7
:10170000089409940094019402941C490394016084
:10171000B321C0E9011440F2E731C0E90314846148
:10172000FFF77EFB08B1FEF78EFE4FF48050049069
:1017300004A91348FFF748FC08B1FEF784FE1048DF
:10174000FFF7E3FD08B1FEF77EFE089408A90C48F8
:101750000994FFF71DFB08B1FEF775FE0120CDE9E6
:10176000004002940822694605480394FFF73EFDB5
:10177000002801D0FEF767FE0AB010BD000400404B
:101780004000002010B588B000241D480594069440
:1017900007940494009401940294184903940160FE
:1017A000B321C0E9011440F2E731C0E903148461B8
:1017B000FFF736FB08B1FEF746FE4FF48050049069
:1017C00004A90F48FFF700FC08B1FEF73CFE0C48E7
:1017D000FFF79BFD08B1FEF736FE0120CDE9004082
:1017E00002940422694606480394FFF7FFFC002890
:1017F00001D0FEF728FE08B010BD000000400140F7
:1018000088000020FEE7FEE770477047FEF756BFEE
:1018100030B593B030216846FEF7AFFD14210CA817
:10182000FEF7ABFD20480025016841F080510160C2
:10183000006800F0805011901C48016841F440415C
:1018400001600068022400F44040119001200390E0
:1018500010200490009406940820CDE90750B4208D
:10186000CDE9090404200B906846FFF7C5F808B1DC
:1018700072B6FEE7FEF7BCFF08B172B6FEE70CA930
:101880000F2081E831004FF4A0500F904FF48050AA
:10189000109005210CA8FEF7E3FF002801D072B6D6
:1018A000FEE713B030BD0000403802400070004039
:1018B0000248016841F470010160704788ED00E062
:1018C0000148FFF7D7BD0000880000200148FFF75E
:1018D000D1BD000040000020F0B50268254C264D27
:1018E000264E274F274B4FF0804CA04209D0604531
:1018F00007D0A84205D0B04203D0B84201D09842E8
:1019000004D122F0700E4A6842EA0E02A0421BD0B7
:10191000604519D0A84217D0B04215D0B84213D0B4
:10192000984211D0184DA8420ED0184DA8420BD0A5
:10193000174DA84208D0174DA84205D0164DA84211
:1019400002D0164DA84203D122F44075CA682A433A
:101950004D6922F080022A4302608A68C2620A68E6
:101960008262A04201D0984201D10969016301213C
:101970004161F0BD0000014000040040000800404B
:10198000000C0040000401400040014000440140C0
:101990000048014000180040001C004000200040AA
:1019A00010B501F01F030121046A99408C430462C1
:1019B000016A9A401143016210BD10B5846842EA81
:1019C000032224F47F440A432243826010BD8268CC
:1019D00022F070020A4342F007018160704710B59F
:1019E000036A046A24F001040462846924F0F004A8
:1019F00044EA021423F00A020A438461026210BD21
:101A000070B5046A24F0010404628469056A154E05
:101A1000B04214D0B0F1804F11D0134EB0420ED06E
:101A2000124EB0420BD0124EB04208D0114EB0420E
:101A300005D0114EB04202D0104EB04203D124F076
:101A40000304144301E044F001041A0724F0F004F5
:101A500044EA126225F00A0301F00A011943826187
:101A6000016270BD00000140000400400008004019
:101A7000000C0040000401400040014000180040FC
:101A800010B5036A23F0100303628369046A23F428
:101A9000704343EA023224F0A00343EA0111826159
:101AA000016210BD30B5046A24F010040462846938
:101AB000056A24F4407444EA022222F470444FF68A
:101AC000FF7202EA03322243A02425F0A00304EAB5
:101AD000011119438261016230BDFEE70907090E59
:101AE000002804DB00F1E02080F80014704700F0CB
:101AF0000F0000F1E02080F8141D704700E0401E48
:101B00000028FCDC70470000FEF7E0FDFFF780FED8
:101B1000FFF796FDFFF7ECFDFFF734FE04212348A5
:101B2000FFF722FC2148FFF70FFA08212048FFF7B2
:101B30001BFC1F48FFF708FA1E4E1F4F4FF40065AD
:101B40000022294634463046FEF7ACFD0022202113
:101B50002046FEF7A7FD0320FFF7D0FF012220213A
:101B60002046FEF79FFD1E20FFF7C8FF0022202120
:101B70002046FEF797FD002204213C463846FEF73A
:101B800091FD0320FFF7BAFF012204212046FEF752
:101B900089FD1E20FFF7B2FF002204212046FEF738
:101BA00081FD0A20FEF752FCCAE7000088000020F1
:101BB00040000020001002400008024021F00042D6
:101BC000A2F16052B2F5801F01F0004328BFD2F1AC
:101BD0007F6C0BD95FEA001C43EAC20242EB5070F3
:101BE00018BF704728BF20F001007047B2F5801F72
:101BF000BCBF184670474FEA410C1CF5001F02D2CB
:101C0000084600F026B970B500F0CAF80000008957
:101C1000FFF7F6BF4FF00040A0F58000704710F0CE
:101C2000004248BF4042B0FA80F310FA03F10AD0F4
:101C3000C3F11D0303F580634FEA415002EB0352E9
:101C400002EBD12170474FF000007047DFF848C128
:101C500070B51CEA111E1EBF1CEA13159EEA0C0F7C
:101C600095EA0C0F00F06F8081EA030423EA4C131D
:101C70004EEAD47E21EA4C1141F4801143F48013E2
:101C8000AE44A1FB024CA0FB0365AEF17F7E36198A
:101C900055EB0C05A1FB034C4CF10003A0FB021C0F
:101CA00016EB0C06654153F10003094218BF46F0DC
:101CB000010613F4007F0BD14FEA03314FEA0530E0
:101CC000340341EA155140EA16506FF003020AE06E
:101CD0004FEAC3214FEAC520F40241EA555140EAD8
:101CE00056506FF0020202EB2E4201EB025585EADC
:101CF000CE710AD05FEA440C18BF24F0004450F1C2
:101D0000000041F1000120EAD47040F2FE7C6245FF
:101D100000D270BDA84214BF4FF080444FF0404441
:101D2000002E08BF0024BEF1806FA8BFA1F1C04102
:101D3000BDE8704080F282804FF0000001F1C041A8
:101D400001F0004170479EEA0C0F0CEA131518BF12
:101D500095EA0C0F06D04FF0000081EA030E0EF05A
:101D6000004170BD00F01CF88900013E00F007B88A
:101D700000F009B84FEA430C5FEA5C5C08D081EAE6
:101D8000030100F05BB84FEA410C5FEA5C5CF6D1FE
:101D90004FF00000014970470000FF070000F87F86
:101DA0000EF1020E2EF0030E5EF8046B364205D4DF
:101DB000012A43EB030515F5001F12D8012841EB5A
:101DC000010C1CF5001F0CD80ED14FEAD17C15F583
:101DD000001F0CEB4C0C0CF1020C08BF4CEBD37C3D
:101DE00004E04FF0080C01E04FEAD37C0CEB4C050B
:101DF00026FA05F606F00706B6F1040C06D20EEB3D
:101E0000860CBDE870404CF0010C6047DFE80CF038
:101E1000090B02024FF000414FF00000A1F5002134
:101E200070BD19461046012851EB010418BFD4F5C6
:101E3000001484BF002001F0004170BD0808A0F527
:101E400000114FEA310170474FF04070E1EE100A87
:101E50007047FF2141EAD050C005704700000000E4
:101E60000000000001020304060708098C1E000898
:101E70000000002030000000E8010008BC1E00083F
:101E800030000020000700000402000800000000ED
:101E90000000000000000000000000000000000042
:101EA0000000000000000000000000000100000031
:0C1EB00010000000000000000024F400FE
:04000005080001AD41
:00000001FF
